:020000040800F2
:100000009021002079020008452400089F23000861
:1000100041240008611C00082B310008000000008A
:10002000000000000000000000000000732700082E
:100030007D20000800000000CD240008852800086D
:10004000930200089302000893020008930200083C
:10005000930200089302000893020008930200082C
:10006000930200089302000893020008930200081C
:10007000930200089302000893020008930200080C
:1000800093020008930200089302000893020008FC
:1000900093020008930200089302000893020008EC
:1000A00093020008930200089302000893020008DC
:1000B00093020008E9280008930200089302000850
:1000C00093020008930200089302000893020008BC
:1000D00093020008A92C0008312D0008ED2D00081E
:1000E000930200089302000893020008930200089C
:1000F000930200089302000893020008930200088C
:10010000930200089302000893020008930200087B
:10011000930200089302000893020008930200086B
:10012000930200089302000893020008930200085B
:1001300000F002F800F090F80AA090E8000C824469
:100140008344AAF10107DA4501D100F085F8AFF246
:10015000090EBAE80F0013F0010F18BFFB1A43F0A5
:100160000103184794400000B4400000103A24BF37
:1001700078C878C1FAD8520724BF30C830C144BF0C
:1001800004680C607047000000230024002500264E
:10019000103A28BF78C1FBD8520728BF30C148BFEA
:1001A0000B6070476E2900F0DE82702900F04984F0
:1001B000662903F08887652903F08587672903F09E
:1001C00082876129AFF3008003681B0A28BF41F0D2
:1001D0008001692900F0CA80642900F0C780752970
:1001E00000F0C4806F2900F0D783782900F01584CF
:1001F000E92900F07183E42900F06E83F52900F00D
:100200006B83EF2900F0D483F82900F0148403688D
:10021000DB0928BF41F08001632900F0E0827329E7
:1002200000F0E582E32900F0CC86F32900F0D186C6
:10023000002070471FB500F021FF040000200021BE
:1002400003F02AFA401C60600020002103F00EFA3F
:10025000E0601FBD10B510BD00F0E3FE1146FFF7D2
:10026000E9FF03F077F800F0BBFF03B4FFF7F2FFFC
:1002700003BC02F0C5FF0000094880470948004759
:10028000FEE7FEE7FEE7FEE7FEE7FEE7FEE7FEE746
:10029000FEE7FEE704480549054A064B70470000A3
:1002A0008928000831010008901B002090210020BF
:1002B000901D0020901D0020704700000FB40449DD
:1002C00010B503AA029800F097FA10BC5DF814FB71
:1002D000540000200FB4044910B503AA029800F09E
:1002E0008BFA10BC5DF814FB540000200FB41CB551
:1002F000084B06AA7B4469460090059800F04DFA29
:1003000004460020694600F05BFA20461CBC5DF8FC
:1003100014FB0000C904000070B50C460546012A14
:1003200005D02878800600D5EA69002302E0012381
:1003300005E05B1C934202D2E05C0028F9D1A86979
:10034000E618C01AA861286A18442862284600F0F6
:1003500078F904E0D5E9012114F8010B9047B44283
:10036000F8D3284600F083F970BD00002DE9F04174
:100370000646002410687529314616A510D000F0F5
:1003800087F9002802DA404213A507E031688A079E
:1003900001D512A502E0490704D511A5012401E009
:1003A00000F07FF900210A2206F1240709E0B0FBE2
:1003B000F2FCB0FBF2F302FB1C003030785418461C
:1003C000491C0028F3D123462A463046BDE8F041B7
:1003D00000F070B9000000002D0000002B000000AC
:1003E000200000002DE9F05F894604464FF0000A26
:1003F000DFF874B1FB44C0F820A02046E1688847CC
:10040000002874D0252806D0D4E901219047206A1D
:10041000401C2062F1E700265F462046E1688847DD
:100420002028054607DB312D05D2781910F8200C5D
:1004300008B10643F1E7B00701D526F00406C4F879
:100440001CA00027C4F818A02A2D09D0284602F0C5
:10045000D0FE38B304EB8708303DC8F8185019E0D7
:1004600059F8041B204604EB87029161E168884734
:10047000012F054618D1E069002820DA26F0200671
:100480001DE0D8F8180000EB800005EB4000303884
:10049000C8F818002046E1688847054602F0A9FE22
:1004A0000028EED1012F0AD02E2D08D12046E16878
:1004B00088477F1C0546022F46F02006C4DBA06952
:1004C000002803DA404246F00106A061F00701D09F
:1004D00026F010066C2D0BD0682D09D04C2D39D08C
:1004E0006A2D35D0742D35D07A2D33D016E038E012
:1004F000E1682F4620468847B842054609D16C2F4F
:1005000026D04FF48060E1680643204688470546C0
:1005100004E06C2F1AD04FF4807006430DB3A5F1A0
:100520004100192802D8203546F400664A4629467B
:10053000204626604E46FFF735FE80B101280BD0DD
:10054000F61D26F0070000F1080956E74020E4E711
:100550008020D8E70020D6E706F104094DE72846B9
:1005600052E7206ABDE8F09FD23C0000032A40F227
:10057000308010F0030C00F0158011F8013BBCF145
:10058000020F624498BF11F801CB00F8013B38BF5D
:1005900011F8013BA2F1040298BF00F801CB38BF6B
:1005A00000F8013B11F0030300F05682083AC0F056
:1005B000088051F8043B083A51F804CBA0E8081031
:1005C000F5E7121D5CBF51F8043B40F8043BAFF364
:1005D0000080D20724BF11F8013B11F801CB48BFBE
:1005E00011F8012B24BF00F8013B00F801CB48BFF4
:1005F00000F8012B70474FF000020429C0F0128070
:1006000010F0030C00F05C82CCF1040CBCF1020F82
:1006100018BF00F8012BA8BF20F8022BA1EB0C019A
:1006200000F04EBA5FEAC17C24BF00F8012B00F84D
:10063000012B48BF00F8012B704770477047704787
:10064000704770B5044685690068C10601D530263B
:1006500000E02026C00707D070BDD4E90121304654
:100660009047206A401C20626D1EF6D570BD70B5A3
:10067000044685690078C00707D170BDD4E901211F
:1006800020209047206A401C20626D1EF6D570BD68
:1006900009684A0501D540B27047C905FCD500B2CA
:1006A000704709684A0501D5C0B27047C905FCD535
:1006B00080B270472DE9F0470D46994692460446B0
:1006C00000F124080168880604D5E06921F01001D2
:1006D000216000E00120A84201DD471B00E0002767
:1006E000A1697A1902EB0900081AA0612078C006F6
:1006F00002D42046FFF7A5FF002608E0D4E9012137
:100700001AF806009047206A401C761C20624E456D
:10071000F4DB2078C0060AD52046FFF792FF06E0FA
:10072000D4E9012130209047206A401C2062381E05
:10073000A7F10107F4DC07E0D4E9012118F805006E
:100740009047206A401C2062281EA5F10105F3DCB9
:100750002046FFF78CFF2078000602D50220BDE876
:10076000F0870120FBE711680268006A530501D594
:1007700008700AE0D30501D5088006E0130603D50A
:10078000C217C1E9000200E00860012070470000C4
:1007900001694A1C02610878704700B58FB0CDE945
:1007A00001310021059105497944CDE90310114635
:1007B0006846FFF717FE0FB000BD0000E5FFFFFF22
:1007C0000A6802F8010B0A60704710B5436913B15B
:1007D000AFF3008001E0FFF79FFD012010BD12780C
:1007E00000F124010A7000224A700122EDE711682D
:1007F0004FF0FF32E9E70000074B70B50D467B4430
:10080000FFF7CBFF0446284600F0E7FB10B14FF09E
:10081000FF3070BD204670BD372B00002DE9FF5F13
:1008200015468A460446DFF8AC80F8440027D8E92C
:1008300000103E46CDE9001010E03AF816106A4666
:1008400002A800F0CEFB411C07D02178890603D511
:10085000E269391891420DD80744761C2078800649
:1008600002D5E069B84205DDAE42E6DB3AF8160093
:100870000028E2D1A069C01BA0612046FFF7E1FE7D
:10088000D8E90010CDE90010002017E03AF8181060
:100890006A4602A800F0A5FBB0F1FF3F81460BD0ED
:1008A00000250DF1080B05E0D4E901211BF8050036
:1008B00090476D1C4D45F7D308F10100B0428046CA
:1008C000E4DB206A384420622046FFF7D0FEBDE812
:1008D000FF9F0000AE3800002DE9F0418046D21D98
:1008E00022F007020025D2E90002F52915A614D04E
:1008F000011E72F1000106DA0023D0EB030063EB66
:10090000020211A608E0D8F800108B0701D50FA647
:1009100002E0490701D50EA601251146002408F181
:10092000240704E000F0F1F830323A55641C50EA34
:100930000102F7D12B46324621464046BDE8F04140
:10094000FFF7B8BE000000002D0000002B000000E3
:100950002000000030B4002100F1240408E002F07F
:100960000705D208303542EA4372DB086554491C5A
:1009700052EA0305F3D10468002310A2250708D525
:1009800004F020040C4304D0C46901230CA2641EAB
:10099000C46130BCFFF78EBE10B504462146106816
:1009A000FFF77FFE02462046BDE810400023D1E756
:1009B000D21D22F00701D1E90023CBE7000000009F
:1009C00030000000F0B40D460188090502D5214C25
:1009D0007C4402E01F4C7C440E34002100F12406CC
:1009E00008E002F00F071209E75D42EA03721B09F3
:1009F0007754491C52EA0307F3D102780023120707
:100A000004D5702D06D009B1022311342246F0BC62
:100A1000FFF750BE01231034F8E770B504460D46C9
:100A200021461068FFF73DFE024629462046BDE8F4
:100A300070400023C6E7D21D22F00703D3E900234C
:100A4000C0E70368126843F0200303600823C36112
:100A50000023B7E71037000010B5203AC0F00B8034
:100A6000B1E81850203AA0E81850B1E81850A0E8B2
:100A70001850BFF4F5AF5FEA027C24BFB1E818500C
:100A8000A0E8185044BF18C918C0BDE810405FEA7C
:100A9000827C24BF51F8043B40F8043B08BF7047F8
:100AA000D20728BF31F8023B48BF11F8012B28BFFD
:100AB00020F8023B48BF00F8012B70474FF00002BE
:100AC00000B5134694469646203922BFA0E80C5044
:100AD000A0E80C50B1F12001BFF4F7AF090728BF1F
:100AE000A0E80C5048BF0CC05DF804EB890028BF9B
:100AF00040F8042B08BF704748BF20F8022B11F0C4
:100B0000804F18BF00F8012B704730B5B0F10A02D2
:100B10004FEA900E71F100034EEA817EB0EB0E00B9
:100B200061EB91014FEA101E4EEA017E10EB0E00C0
:100B300041EB11114FEA102E4EEA016E10EB0E0040
:100B400041EB11214FEA104E4EEA014E10EB0E0020
:100B500041EB1141401841F100014FEAD00040EA59
:100B600041704FEAD10110EB80054FEA810444EA5D
:100B7000907444EB01046D1944EB0404521BA3412F
:100B80004FF0000348BF0A3200D530BD401C41F190
:100B9000000130BD70472DE9FF4F0C461E464FF057
:100BA000FF378BB0D2E90001DDF860800A908A46F9
:100BB000C1F30A5505B93D46002108464FF0000033
:100BC000BAF1000F00F4400005DA00EB80004FF4AA
:100BD000400101EA50004FEA9059B9F1010F00DDE0
:100BE000B9460A9850EA4A000ED044F61050A5F2D1
:100BF000FF3545432F14B8F1000F1ED07542291E52
:100C00001EDDC9F100021CE0B8F1010F4FF0000039
:100C100001D0302103E0F24305E02154401CB042F2
:100C2000FBDB30460022002121540B99C1F80880DB
:100C3000C1E900200FB0BDE8F08FBD1B6D1CDEE7E1
:100C40004A4600DA694206A800F05CFA06AB93E86F
:100C5000070003AB83E8070050460A9900F00AFB3F
:100C60008DE80700A0F500501F3800900398002D74
:100C700009DD42F21F014A46084403A90390684671
:100C800000F069FD08E0A0F500504A461F3803A9AE
:100C90000390684600F073FD8DE807000004000C27
:100CA00003D04FF0FF30410800E01046B8F1000FCC
:100CB00003D00022009215461EE0751E05D4FFF7F2
:100CC00024FF303262556D1EF9D5B3460122084328
:100CD00002D000227F1C04E02078302801D10022BD
:100CE0007F1E002A099786D01DE0112D07DAFFF735
:100CF0000CFF303262556D1C50EA0102F5D10843F9
:100D000002D00098C8B10EE00021681E05E0235C07
:100D1000625C63542254401E491C8142F7DBAB469F
:100D2000A81B401E0990002004F80B000B98099A9C
:100D3000C0F80880C0E9002B7CE711264FF00008BE
:100D400059E72DE9F04F88460446D21D22F00701ED
:100D500091B0D1E90001CDE90A0102F036FA02466C
:100D60000B98C00F01D02D2007E02068810701D526
:100D70002B2002E0202101EAC000032A099001D0C3
:100D8000072A05DB03464146204600F07BF90BE1CC
:100D90002078800601D5E06900E00620B8F1650FF3
:100DA000814606D0B8F1660F18D0B8F1670F70D140
:100DB00031E00020B9F1110F009001DB112301E0B7
:100DC00009F101030AAA01A90CA8FFF7E4FEDDE975
:100DD0000C70002609F10105834647E001204B46CF
:100DE00000904FF000470AAA01A90CA8FFF7D3FE14
:100DF000DDE90DB00C995D46002610B909F101003E
:100E00000D18B9EB050003D4C0F1FF3609F1010557
:100E1000A5EB09002BE0B9F1010F01DA4FF0010950
:100E20000020B9F1110F0090484601DD112300E0C8
:100E300003460AAA01A90CA8FFF7ADFEDDE90C7074
:100E40004D4600268346207800070AD4AB4500DAD9
:100E50005D4601A8012D04DD411911F8011C30295E
:100E600007D04F4502DA17F1040F04DA0120824659
:100E70000FE06D1EEEE7002F02DCED1B3E4403E0A9
:100E8000781CA84200DD7D1CB81B00F1010A4FF060
:100E900000472078000703D4AA4501DB4FF0FF3A52
:100EA0000021B7F1004F0DF143088DF8431024D015
:100EB00002202B23002F01DA7F422D230A21021E5C
:100EC000A0F1010000DC5FB197FBF1FC97FBF1F2B0
:100ED00001FB1C7C17460CF1300C08F801CDEEE745
:100EE000A8F1010003702188090501D5452100E022
:100EF0006521A0F1010800F8011C09980FA9A1EBD8
:100F00000807FF1D00B10120411901EBEA70A1693A
:100F10003844081A401EA0612078C00602D420463A
:100F2000FFF78FFB099828B1D4E901219047206A87
:100F3000401C20622078C00622D52046FFF781FBA6
:100F40001EE0002E04DBB34502DD01A8805D00E059
:100F50003020D4E901219047206A401C2062761C91
:100F6000AAF101005FEA000A0AD100F087F8C06820
:100F70000168405CD4E901219047206A401C20624E
:100F8000281EA5F10105DCDC07E0D4E9012118F8F1
:100F9000010B9047206A401C2062381EA7F1010710
:100FA000F3DC2046FFF763FB032011B043E610B5E6
:100FB000436913B1AFF3008001E0FFF72FFC01207C
:100FC00010BD128800F1240182840022C284012213
:100FD000EDE711684FF0FF32E9E7007B00F0800099
:100FE000704770B516460C46054600F03FF803689A
:100FF00093F80101012806D0FF2C0FD8185D68B1C5
:1010000001202C7070BDD3F807013246214603F24F
:10101000071303442846BDE8704018474FF0FF30DF
:1010200070BD754600F0E2F8AE46050069465346CD
:1010300020F00700854618B020B5FFF72BF9BDE872
:1010400020404FF000064FF000074FF000084FF02F
:10105000000B21F00701AC46ACE8C009ACE8C009C0
:10106000ACE8C009ACE8C0098D46704710B500F087
:1010700005F8001D10BD00BF212600000048704784
:101080004C1B00202DE9F0411F4604460326016851
:10109000072A01F4006004DB08B116A505E016A5D7
:1010A00003E008B115A500E015A521F010002060AF
:1010B000A069C01EA0610FB1401EA0612046FFF7CD
:1010C000C0FA4FB1D4E9012138469047206A401C4C
:1010D0002062C01C206206E0206AFAE7D4E9012100
:1010E00015F8010B9047761EF8D22046FFF7BFFA9D
:1010F000BDE8F0814E414E006E616E00494E4600E3
:10110000696E66002DE9F047814616468AB033487D
:1011100078440DC88DE80D0030487844801C03AC3D
:101120000DC884E80D0041F69B300844372190FB40
:10113000F1F290FBF1F5A5F1800501FB12041B3CD7
:1011400002D56442012000E00020DFF890A0804634
:101150000027FA44AAF1BE0A0DE0E00709D03246A2
:10116000684607EB47010AEB810100F008FB8DE8B8
:10117000070064107F1C002CEFD1184F7F44AC3F58
:1011800018E0E80714D007EB04100DF1180A90E8F6
:101190000E008AE80E00C068F04201D1981908904C
:1011A000324606A903A800F0EAFA03AB83E8070079
:1011B0006D10641C002DE4D132466946B8F1000F71
:1011C00003A802D000F0C7FA01E000F0D8FAC9E99C
:1011D0000001C9F808200AB0BDE8F08774300000AB
:1011E0000446AFF300802046FFF73FF80048704701
:1011F0002C1B00204FF0013C50F8042B51F8043B0D
:101200009A4221D1A2EB0C03934313EACC1317D1DA
:1012100050F8042B51F8043B9A4215D1A2EB0C0371
:10122000934313EACC130BD150F8042B51F8043B31
:101230009A4209D1A2EB0C03934313EACC13DBD0FF
:101240004FF00000704700BFD01A01BAB1FA81F127
:1012500001F0180122FA01F0CB40C1F12001DBB20C
:10126000C0B2C01A2CFA01F3D11A914311EAC3118A
:10127000E6D170475FEA400C08BF91F0000F4FEADB
:101280008C234FEAC12243EA51514FEA1C5018BF48
:1012900000F5F0404FEA300018BF41F000415FEA2E
:1012A0006C5C00F02980BCF1FF3F08BF40F080403B
:1012B0007047130C06BF12044FF0100C4FF0000CD7
:1012C000130E04BF12020CF1080C130F04BF12011D
:1012D0000CF1040C930F04BF92000CF1020CD30F1D
:1012E00004BF52000CF1010C11464FF00002A0F1B6
:1012F0001F00A0EB0C00704711F0004F08BF7047B3
:1013000031F000413FF4D5AF0B0C06BF09044FF09C
:10131000100C4FF0000C0B0E04BF09020CF1080C6E
:101320000B0F04BF09010CF1040C8B0F04BF8900E3
:101330000CF1020CCB0F04BF49000CF1010CCCF1F5
:101340002003A0EB0C0022FA03F302FA0CF241EAAC
:10135000030100F10100704720F07F4C80EA030098
:1013600023F07F47ACEB070303F57C5300F000400C
:1013700003F1FF032DE980494FEA154B09B44FEA09
:10138000144325EA0B4E24EA03480FF2042606EB29
:10139000132749083E785FEA320203FB0667C7F568
:1013A000000707FB06F64FEA54374FEAD64606F128
:1013B000020607FB066CCCF1005C4FEA1C472CEAE6
:1013C000074C07FB06F40CFB06F504EB15464FEA49
:1013D000961634BF00204FF000404FEAD13706FB8D
:1013E00007FC4FEA1C4C0CFB0BF7D21B03FB0CF762
:1013F00061EB07010CFB0EF7B0EB074072EB1742F5
:101400000CFB08F734BFA2EB0742B2EB074261EBDB
:1014100017414FEA0C444FEA910706FB07FC4FEADD
:101420001C4C0CFB0BF7B0EBC74072EB573203FBC5
:101430000CF734BFA2EBC742B2EBC74261EB5731A6
:101440000CFB0EF7B0EBC70072EB57720CFB08F702
:1014500034BFA2EBC702B2EBC70261EB5771039F27
:101460004FEA816141EA921104EBCC044FEAD13793
:101470004FEA826206FB07FC42EA90124FEA806064
:101480004FEA1C4C0CFB0BF7D21B03FB0CF761EB78
:1014900007010CFB0EF7B0EB074072EB17420CFB99
:1014A00008F734BFA2EB0742B2EB074261EB1741EA
:1014B0004FEA8C554FEA910704EB9C2406FB07FC8E
:1014C0004FEA1C4C0CFB0BF7B0EBC74072EB5732EA
:1014D00003FB0CF734BFA2EBC742B2EBC74261EB90
:1014E00057310CFB0EF7B0EBC70072EB57720CFBD9
:1014F00008F734BFA2EBC702B2EBC70261EB57712A
:1015000015EB4C254FEA816141EA92114FEA826264
:101510004FEAD13742EA901206FB07FC44F100047F
:101520004FEA80604FEA1C4C0CFB0BF7D21B03FB0D
:101530000CF761EB07010CFB0EF7B0EB074072EB09
:1015400017420CFB08F734BFA2EB0742B2EB07428D
:1015500061EB174115EB1C154FEA813141EA9241CD
:101560004FEA823242EA90424FEA80304FEA0C76EC
:1015700044F1000448EA03434EEA0B484FF0000EE2
:10158000B2EB080C71EB030724BF624639464EEB01
:101590000E0E4FF0000B0018524149414BEB0B0B64
:1015A000B2EB080C71EB03077BF1000B24BF624622
:1015B00039464EEB0E0E4FF0000B001852414941D8
:1015C0004BEB0B0BB2EB080C71EB03077BF1000B41
:1015D00024BF624639464EEB0E0E51EA020718BF91
:1015E00046F0010616EB0E7655F1000254F10001AB
:1015F00003D5BDE88901BDE80088BDE88901BDE8E3
:101600000048B619524141EB0101A3F101037047B3
:1016100080807F7E7D7C7B7A79787776767574732F
:10162000727171706F6E6E6D6C6C6B6A6A696868EE
:10163000676666656464636362616160605F5F5E84
:101640005E5D5D5C5C5B5B5A5A59595858575756FA
:10165000565555555454535352525251515050505F
:101660004F4F4F4E4E4D4D4D4C4C4C4B4B4B4A4AB1
:101670004A494949484848474747474646464545F5
:10168000454444444443434343424242424141412E
:10169000002B26D4770021D01CB54FEA370703B4BE
:1016A0004FF010004FF010014FF000000FBCBDE8EC
:1016B00010400BF1010BBBF1010F08BF5FEA1707E8
:1016C00022BF12F1010211F101014FF0004143F17B
:1016D000000300F0004043EA00007047F9D35708C8
:1016E000DAE746EA064613F1400F4FEA16461FDDD9
:1016F00013F1200FDFBF16430A46002120335B425F
:10170000C8D0C3F1200746EA064602FA07F74FEAB7
:10171000164646EA0706C3F1200722FA03F201FA49
:1017200007F721FA03F14FF0000342EA0702B1E79D
:1017300046EA020646EA06464FEA164646EA010629
:10174000BCBF46EA0646360C4FF000034FF00002DD
:101750004FF000019EE72DE9C048934630B491E870
:10176000380007C831EA400C48BF34EA430C03D5BF
:10177000FFF7F2FDFFF78CFFF0BCBDE800882DE914
:10178000C048934630B491E8380007C810F0804F45
:1017900008BF13F0804F03D100F005F8FFF778FF82
:1017A000F0BCBDE8008820F07F4780EA030023F00A
:1017B0007F4C07EB0C03A3F57C5300F00040A3F132
:1017C000FE0392F0000F00F0B38095F0000F00F0E0
:1017D00077802DE901494FEA11404FEA144621EA8A
:1017E000004800FB06FC24EA064708FB06F607FB58
:1017F00008F800FB07F718EB06484CEB164C4FEACD
:10180000124B18EB07484FEA15464CEB174022EAFB
:101810000B4E0BFB06FC25EA06470EFB06F607FB04
:101820000EFE0BFB07F71EEB064E4CEB164C4FF073
:1018300000061EEB074E4CEB174B18EB0B0840F164
:10184000000018EB0E0B58EB000840F100008F1A57
:101850004FF000013CBFC943661B14BFB5EB040C3D
:1018600000213CBFC943F61B4FEA17444EEA8E0ED7
:1018700027EA04454FEA1C4704FB07622CEA074CA1
:1018800005FB07F70CFB05F604FB0CFC16EB074603
:1018900042EB174216EB0C4642EB1C421BEB0606D2
:1018A00058EB0202414146EA9E0601D5BDE8018996
:1018B000B619524141EB0101A3F10103BDE80189D1
:1018C0004FEA14454FEA114724EA054621EA074C3E
:1018D00005FB07F406FB07F70CFB06F105FB0CFC08
:1018E00011EB074144EB17444FEA124711EB0C414F
:1018F00044EB1C4422EA074C05FB07F206FB07F702
:101900000CFB06F605FB0CFC16EB074642EB1742F8
:1019100016EB0C4642EB1C456A1854F1000148BF17
:101920007047B619524141EB0101A3F10103704721
:1019300095F0000F37D04FEA11424FEA144721EAE1
:10194000024624EA074C02FB07F106FB07F70CFBF3
:1019500006F402FB0CFC14EB074441EB17414FEA81
:10196000154714EB0C4441EB1C4125EA074C02FBE4
:1019700007F506FB07F70CFB06F602FB0CFC16EB63
:10198000074645EB174516EB0C4645EB1C42121972
:1019900051F1000148BF7047B619524141EB0101B6
:1019A000A3F1010370474FEA14454FEA114724EAB7
:1019B000054621EA074C05FB07F106FB07F70CFB80
:1019C00006F24FF0000605FB0CFC12EB074241EB60
:1019D000174112EB0C4251EB1C4148BF7047921863
:1019E00041EB0101A3F10103704721B1826842F08C
:1019F0000102826003E0826822F001028260704787
:101A000010B504461248844208D10121401500F067
:101A10009BFD0021601500F097FD17E00D48844202
:101A200008D10121001500F08FFD0021201500F0E4
:101A30008BFD0BE00848844208D10121C80300F067
:101A400083FD00214FF4004000F07EFD10BD00003A
:101A50000024014000280140003C014001460020D4
:101A60008A6802F004020AB1012000E000207047F9
:101A70000146C86C80B270470246002013680B40D4
:101A80000BB1012000E000207047014600208A6869
:101A900002F008020AB1012000E0002070470000B7
:101AA00030B502460020002350680F4C20400D79CD
:101AB0000C6844EA05242043506090680B4C204099
:101AC000D1E902542C434D7944EA45042043906007
:101AD000D06A20F470000C7C641EE4B2234340EA18
:101AE0000350D06230BD0000FFFEF0FFFDF7F1FFB4
:101AF000F0B504460D4600200021092D11DDE068F7
:101B0000A5F10A0606EB4607072606FA07F1884301
:101B1000A5F10A0606EB460603FA06F10843E06063
:101B20000CE0206905EB4507072606FA07F1884314
:101B300005EB450603FA06F108432061072A0FDA90
:101B4000606B561E06EB86071F2606FA07F18843D0
:101B5000561E06EB860605FA06F10843606322E08E
:101B60000D2A0FDA206BD61F06EB86071F2606FA12
:101B700007F18843D61F06EB860605FA06F10843EF
:101B8000206310E0E06AA2F10D0606EB86071F262F
:101B900006FA07F18843A2F10D0606EB860605FA60
:101BA00006F10843E062F0BD816841F00801816000
:101BB000704721B1826842F4A002826003E082682B
:101BC00022F4A00282607047816841F004018160C4
:101BD0007047000000B587B001214FF4017000F09C
:101BE000A3FC4FF4004000F073FC0220ADF80400A9
:101BF00000208DF8070001A9174800F0CAFA17481D
:101C0000FFF7FEFE002002908DF80C008DF80D000D
:101C10004FF4602004900020059001208DF81800FA
:101C200002A90E48FFF73CFF01210C48FFF7DDFE3B
:101C30000A48FFF7B9FF00BF0848FFF726FF002852
:101C4000FAD10648FFF7C0FF00BF0448FFF706FFC0
:101C50000028FAD107B000BD00080140002401406F
:101C600000BFFEE710B500241548006820F00F0003
:101C7000134908600846006840F00800086004E066
:101C8000601CC4B2012001F031FB0E48006808B1AD
:101C9000642CF5DB642C01DB012010BD002404E082
:101CA000601CC4B2012001F021FB0648006808B99D
:101CB000642CF5DB642C01DB0120EEE70020ECE76F
:101CC000001001400001224208B50121102000F05F
:101CD0002BFC0120ADF8000010208DF8030003203C
:101CE0008DF802006946064800F053FA01210448C5
:101CF00000F022FB00F05CF8FFF7B4FF08BD000025
:101D00000010014010B5002404E0601CC4B20120A2
:101D100001F0ECFA0D48006808B1642CF5DB0024F2
:101D200004E0601CC4B2012001F0E0FA074800683A
:101D300008B9642CF5DB282001F0D8FA03480068C4
:101D400008B1012010BD0020FCE700000001224284
:101D500070B50024002506E06006040EFFF7D2FFF0
:101D60000443681CC5B2082DF6DB204670BD7CB567
:101D7000054600F01DF8FFF775FFA0B9002405E047
:101D8000FFF7E6FF0DF80400601CC4B2052CF7DB7A
:101D90009DF801009DF8001040EA01200A2190FB07
:101DA000F1F0288001E001207CBD0020FCE700006C
:101DB00010B50C48006820F00F000A49086008467A
:101DC000006840F003000860002007490860142004
:101DD00001F066FA01200549C1F880011E2001F0DA
:101DE00085FA10BD0010014080012242000022420D
:101DF00010B500241548006820F4700013490860ED
:101E00000846006840F40000086004E0601CC4B2AA
:101E1000012001F06BFA0E48006808B1C82CF5DB10
:101E2000C82C01DB012010BD002404E0601CC4B2FA
:101E3000012001F05BFA0648006808B9F02CF5DBD8
:101E4000F02C01DB0120EEE70020ECE70010014060
:101E5000140122422DE9F84F00F0CAF800F0A6F86C
:101E6000FFF7C6FFCC2000F0CFF8BE2000F0CCF882
:101E700000F08AF8834600F087F80446072C08DD56
:101E8000E043C4B26FEA0B0000F0FF0B4FF0000A12
:101E900001E04FF0010AA1464FEA09200FFA80F94C
:101EA00009EB0B000FFA80F9484601F09FFF009004
:101EB00001F0EEFE07460022084B01F0EBFD05465F
:101EC00001F08AFD0FFA80F9BAF1000F02D04846FE
:101ED000BDE8F88FC9F1000000B2F9E70000E43F67
:101EE00008B50121102000F01FFB2020ADF80000F4
:101EF00010208DF8030003208DF802006946064883
:101F000000F047F92021044800F016FA00F04EF8DE
:101F1000FFF76EFF08BD00000010014010B5174824
:101F2000006820F47000154908600846006840F415
:101F300040100860002012490860022001F0D6F924
:101F400001201049C1F894010C48006820F4700089
:101F50000A4908600846006840F4000008600C2048
:101F600001F0C4F906488038006808B1012400E097
:101F70000024322001F0BAF9204610BD00100140C3
:101F8000940122420000224270B50026012508E09B
:101F9000FFF7C4FF0446E00140EA6600C6B2681CD1
:101FA000C5B2082DF4DD304670BD000010B50D48F7
:101FB000006820F470000B4908600846006840F48F
:101FC0004010086000200849086040F2EE2001F04F
:101FD0008DF901200549C1F894010F2001F086F91F
:101FE00010BD000000100140940122420000224276
:101FF00010B5FFF7DBFFFFF7FBFECC2000F004F885
:10200000442000F001F810BD70B50446184800687F
:1020100020F47000164908600846006840F440103B
:102020000860012520E004F0010664106EB1002074
:1020300010490860022001F059F901200E49C1F849
:1020400094013C2001F052F90CE00020094908609D
:102050003C2001F04BF901200749C1F8940102200E
:1020600001F044F9681CC5B2082DDCDD70BD00002C
:1020700000100140940122420000224270470000FB
:1020800030B5044604254FF4302000F06FF80546C3
:10209000042D17D10C48006940F002000A4908617C
:1020A00008464461006940F0400008614FF4302068
:1020B00000F05CF805460448006941F6FD710840EF
:1020C00001490861284630BD0020024004200B4928
:1020D000C96801F0010109B101200EE00749C96892
:1020E00001F0040109B1022007E00449C96801F0C8
:1020F000100109B1032000E00420704700200240D5
:102100000348006940F08000014908617047000001
:102110000020024070B504460D460426F00200F08F
:1021200025F80646042E11D10948006940F0010047
:10213000074908612580F00200F018F806460448B7
:10214000006941F6FE71084001490861304670BDE2
:102150000020024002480349486003484860704735
:102160002301674500200240AB89EFCD00B5024650
:102170000423FFF7ABFF034603E0FFF7A7FF034687
:10218000521E012B01D1002AF7D102B905231846AE
:1021900000BD2DE9F0410246002500260020002365
:1021A0000024002791F803C00CF00F0591F803C03C
:1021B0000CF0100CBCF1000F03D091F802C04CEAF7
:1021C000050591F800C0BCF1000F31D01468002063
:1021D0002BE04FF0010C0CFA00F3B1F800C00CEA50
:1021E00003069E4220D183004FF00F0C0CFA03F738
:1021F000BC4305FA03FC4CEA040491F803C0BCF1AB
:10220000280F06D14FF0010C0CFA00FCC2F814C0E4
:102210000AE091F803C0BCF1480F05D14FF0010C62
:102220000CFA00FCC2F810C0401C0828D1D314607E
:10223000B1F800C0BCF1FF0F34DD546800202EE07F
:1022400000F1080C4FF0010808FA0CF3B1F800C0D7
:102250000CEA03069E4221D183004FF00F0C0CFACA
:1022600003F7BC4305FA03FC4CEA040491F803C0ED
:10227000BCF1280F05D100F1080C08FA0CF8C2F8DF
:10228000148091F803C0BCF1480F07D100F1080C8D
:102290004FF0010808FA0CF8C2F81080401C08281A
:1022A000CED35460BDE8F081F0B50A460023002487
:1022B0000021002500F00046B6F1004F02D11D4E6E
:1022C000F16901E01B4E7168C0F3034583B200F46D
:1022D0004016B6F5401F08D121F07061154E7668A2
:1022E00026F07066134F7E6012E000F48016B6F59B
:1022F000801F06D1032606FA05F4A14341F0706160
:1023000006E0460D360103FA06F6B14341F070616E
:1023100022B1460D360103FA06F6314300F00046BD
:10232000B6F1004F02D1034EF16101E0014E716040
:10233000F0BD0000000001400161704710B5044687
:102340000723012221460948FFF7D2FB0121074854
:10235000FFF72FFC00BF02210448FFF78DFB002888
:10236000F9D00248FFF784FB10BD000000240140B3
:102370002DE9F04107460C460025002608E03846C6
:10238000FFF7DCFF0544052000F08AFF701CC6B291
:10239000A642F4DBB5FBF4F080B2BDE8F08100BFEB
:1023A000FEE7000008B501210D2000F0BDF8012175
:1023B0002048FFF779FF4FF48040ADF8000010206F
:1023C0008DF8030003208DF8020069461A48FFF7D4
:1023D000E0FE4FF480411848FFF7AEFFE020ADF873
:1023E000000069461448FFF7D4FE48F22000ADF81B
:1023F000000010208DF8030003208DF802006946CC
:102400000E48FFF7C6FE20210B48FFF795FF40213D
:102410000948FFF791FF80210748FFF78DFF4FF430
:1024200000410648FFF788FF20210448FFF784FF9A
:1024300008BD000000023000000C0140000801400F
:1024400000BFFEE77047000070B5002100230F2297
:10245000C47804B3154C246804F4E064C4F5E06463
:10246000210AC1F10403CA40447804FA03F18478D4
:102470001440214309010E4C0678A155047804F05C
:102480001F050124AC4005786D11AD0005F1E02574
:10249000C5F8004109E0047804F01F050124AC40B0
:1024A000044D0678761145F8264070BD0CED00E02D
:1024B00000E400E080E100E002490143024A1160CB
:1024C000704700000000FA050CED00E070470000C6
:1024D00001460020034A506820F440400843506001
:1024E000704700000010024029B1064AD269024339
:1024F000044BDA6104E0034AD2698243014BDA619A
:10250000704700000010024029B1064A12690243D8
:10251000044B1A6104E0034A12698243014B1A61B9
:10252000704700000010024029B1064A9269024338
:10253000044B9A6104E0034A92698243014B9A6119
:10254000704700000010024029B1064AD2680243D9
:10255000044BDA6004E0034AD2688243014BDA603C
:10256000704700000010024030B500210022002416
:1025700000232D4D6D6805F00C0121B1042905D013
:10258000082923D105E0294D056022E0274D05608B
:102590001FE0254D6D6805F47012234D6D6805F43C
:1025A0008034022505EB92421CB9214D554305604C
:1025B0000BE01D4D6D6805F400351DB11C4D5543F4
:1025C000056002E0194D5543056002E0174D0560B6
:1025D00000BF00BF144D6D6805F0F0010909154DED
:1025E0006B5C0568DD4045600F4D6D6805F4E0618A
:1025F000090A104D6B5C4568DD4085600A4D6D68C9
:1026000005F46051C90A0B4D6B5C4568DD40C5603F
:10261000054D6D6805F44041890B074D6B5CC5683D
:10262000B5FBF3F5056130BD0010024000127A00E1
:1026300000093D005A0000206A00002030B5034622
:102640000C461546002207E0184600F008F824F86A
:1026500012009B1C501C82B2AA42F5DB30BD014621
:10266000088870472DE9F05F80468A461746B8F122
:10267000006F02D33348804501D3BDE8F09FFFF7D8
:1026800069FDA8F1006B4FEADB25CBF34909C9F5D9
:102690008064A74200DC3C464DE04FF0006101EB56
:1026A000C5204A142849FFF7C9FF00260BE009EBB3
:1026B0000600254931F810004FF6FF71884200D01E
:1026C00003E0701C86B2A642F1DB00BFA6421BDA13
:1026D0004FF0006101EBC520FFF7D2FC002608E0B7
:1026E0003AF8160006EB0901174A22F81100701C8F
:1026F00086B2A642F4DB4FF0006101EBC5204A141C
:10270000114900F023F804E022465146404600F00B
:102710001DF8A74200D10FE06D1C4FF000090AEB35
:10272000440AA044381B87B2B7F5806F02DD4FF42E
:10273000806400E03C46B0E700BFFFF7E1FC00BF6B
:102740009BE7000000000408621200202DE9F04120
:1027500005460E461746002407E036F814102846B2
:10276000FFF7D8FCAD1C601C84B2BC42F5DBBDE8B1
:10277000F081704710B500F001F810BD0CB50020D5
:10278000019000903348006840F48030314908607F
:1027900000BF3048006800F4003000900198401CF1
:1027A0000190009818B90198B0F5A06FF1D12948AF
:1027B000006800F4003010B10120009001E000201A
:1027C00000900098012843D12348006840F0100091
:1027D000214908600846006820F0030008600846A8
:1027E000006840F0020008601A48406819494860D3
:1027F0000846406848600846406840F48060486089
:102800000846406820F47C1048600846406840F460
:10281000E81048600846006840F08070086000BF1B
:102820000C48006800F000700028F9D009484068A2
:1028300020F00300074948600846406840F0020065
:10284000486000BF0348406800F00C000828F9D138
:102850000CBD00000010024000200240042808D1F6
:102860004FF0E021096941F004014FF0E0221161CD
:1028700007E04FF0E021096921F004014FF0E02268
:10288000116170477047000010B51348006840F0B0
:1028900001001149086008464068104908400E4987
:1028A0004860084600680E4908400B490860084621
:1028B000006820F4802008600846406820F4FE008C
:1028C00048604FF41F008860FFF754FF4FF000602E
:1028D0000449086010BD0000001002400000FFF82D
:1028E000FFFFF6FE08ED00E02DE9F04F87B0012173
:1028F000624800F048F900287ED001215F4800F0CE
:1029000033F95F4801785FA0FDF7E4FC6148006897
:1029100008B9012000E000205E4908605E48FFF72A
:1029200026FAFFF797FA5C49891F48800A2101209F
:10293000FFF71EFD0590059801F070FA824601F040
:10294000A7F907464FF06632544B01F0A3F805464D
:1029500000F0B8FE0690069801F028FA80B20590C3
:102960004F49069801F06EFA06904E49069801F01C
:1029700035FB009001F08CF9074600224A4B00F02D
:10298000D3FE05460022494B01F084F8824601F04F
:1029900053F84149891F88720846807A642801DB10
:1029A0006420887210223C49891F01A8FDF7DEFDD2
:1029B00000240CE001A8015D3D4800F0B2FB00BF1F
:1029C00040213B4800F0E0FA0128F9D1641C102CAA
:1029D000F0D338480068401C364908600846006853
:1029E0000A2822DB2648007802281ED132A13F485F
:1029F000FDF77CFC814600E03CE000240CE03B4815
:102A0000015D3B4800F08DFB00BF4021384800F0DD
:102A1000BBFA0128F9D1641C4C45F0DB334935A0E1
:102A2000FDF758FC002023490860224800683C2834
:102A300020DB1348007802281CD01748801F037B36
:102A4000827A2F492F48FDF751FC814600240CE083
:102A50002C48015D264800F064FB00BF402124485B
:102A600000F092FA0128F9D1641C4C45F0DB0020FB
:102A70001049086007B0BDE8F08F00000004004076
:102A800028000020646573697265643A25640D0A44
:102A900000000000B88121427600002066664A3FAF
:102AA0000000C8420000C8410000694000005940D1
:102AB000004400400800002030327B226964223A42
:102AC00022313233222C2276657273696F6E223A7C
:102AD0002022312E30222C22706172616D73223AD5
:102AE000205B226C6F636B225D7D0A0080010020F9
:102AF0000048004073656E64202573200D0A0000B5
:102B0000A0410008800000207FB505460C46012149
:102B10000220FFF7E9FCADF80850ADF804400020B2
:102B2000ADF80A00ADF8060001A90E4800F046F81D
:102B3000012211460B4800F037F81D208DF80000E7
:102B400000208DF8010003208DF8020001208DF88F
:102B500003006846FFF778FC0121024800F007F8FF
:102B60007FBD000000040040CA430282704721B1CB
:102B7000028842F00102028004E002884FF6FE73F0
:102B80001A400280704730B502460020002300241E
:102B9000158A05EA0103958905EA010413B10CB110
:102BA000012000E0002030BD1AB183890B438381EE
:102BB00002E083898B4383817047000000220288F2
:102BC0001D4B98420ED01D4B98420BD0B0F1804F58
:102BD00008D01B4B984205D01A4B984202D01A4B92
:102BE000984204D14FF68F731A404B881A43174B03
:102BF000984207D0164B984204D04FF6FF431A4034
:102C0000CB881A4302808B8883850B8803850A4B07
:102C100098420BD0094B984208D00E4B984205D0F1
:102C20000D4B984202D00D4B984201D10B7A03868E
:102C30000123838270470000002C014000340140D2
:102C40000004004000080040000C0040001000405C
:102C50000014004000400140004401400048014091
:102C600000B501200549086000F0EAFA0020044997
:102C7000C1F8980100F0EBFA00BD00009801224273
:102C80000000224200B501200549086000F0DFFA8B
:102C900000200449C1F8980100F0D2FA00BD0000FC
:102CA000980122420000224210B540F225511D48F1
:102CB00000F077F910B31B4800F02EFAC4B21A489E
:102CC000008800F40040C8B91748008800F480402C
:102CD00060B10A2C03D000201349088020E012487C
:102CE000008840F400401049088019E00D2C06D1FE
:102CF0000D48008840F480400B49088010E00A48E5
:102D00000088C0F30D0009490C5407480088401C96
:102D10000549088008460088C72801DD0020088092
:102D200010BD00000038014050000020621A002051
:102D300070B5002540F22551264800F032F90028F0
:102D400047D0244800F0E8F9C4B22348007B0028AB
:102D50003FD1252C1DD1214908602149C1F8980196
:102D60001E49083108601F49C1F8BC010A250BE063
:102D70004FF07E514FF46E4000F046FA1A4800F0D2
:102D800015FA142000F0B2FA2800A5F10105EFD1E0
:102D90001FE0292C1DD10120104908601049C1F8FD
:102DA00098010E49083108600E49C1F8BC010A2596
:102DB0000BE04FF07E514FF46E0000F025FA0A4808
:102DC00000F0F4F9142000F091FA2800A5F10105B3
:102DD000EFD170BD0044004070000020948121427A
:102DE00000802142000021422C00002070B500BF6D
:102DF0000025002640212A4800F062F840F22551C3
:102E0000274800F0CEF860B12548001D0088C1B207
:102E1000244802880088401C224B18802248815494
:102E20003DE010211E4800F0AFF8002837D01C48C4
:102E30000088C4B21A48001D0088C4B21A48FDF7C1
:102E40003DFA18480088001F1749085C30280ED149
:102E50000020164908701649087316490880012297
:102E60001548FFF7FFFB01201449086014E00D48E6
:102E70000088001F0C49085C31280DD101200B4946
:102E800008700B4908730B49088001220A48FFF7B4
:102E9000E9FB00200949086000200249088070BD54
:102EA000004800402400002080020020280000206C
:102EB00070000020260000200060000894012142DC
:102EC00001F40072B2F5007F00D100BFCA43028056
:102ED000704721B1828942F40052828104E08289E4
:102EE0004DF6FF731A4082817047000010B504460A
:102EF0002048844209D101218803FFF725FB0021E6
:102F00004FF48040FFF720FB32E01B48844209D198
:102F100001214804FFF7F8FA00214FF40030FFF7D1
:102F2000F3FA25E01548844209D101218804FFF70E
:102F3000EBFA00214FF48020FFF7E6FA18E0104882
:102F4000844209D10121C804FFF7DEFA00214FF4C1
:102F50000020FFF7D9FA0BE00A48844208D101218A
:102F60000805FFF7D1FA00214FF48010FFF7CCFAE3
:102F700010BD0000003801400044004000480040FF
:102F8000004C00400050004002460020B1F5007F98
:102F900000D100BF13880B400BB1012000E00020DE
:102FA000704770B50246002400230025002040F63B
:102FB0006A16B14200D100BFC1F3421501F01F03F0
:102FC000012606FA03F3012D02D19689334006E06B
:102FD000022D02D1168A334001E0968A33400C124A
:102FE000012606FA04F41688344013B10CB101200E
:102FF00000E0002070BDF0B5034600240026002547
:10300000002040F66A17B94200D100BF1846C1F34C
:10301000421401F01F06012707FA06F5012C01D121
:103020000C3004E0022C01D1103000E014301AB151
:1030300007682F43076002E00768AF430760F0BDF1
:103040002DE9F04786B005460E460024A24600BF93
:10305000A1460027B08900B100BF2F462C8A4CF64C
:10306000FF700440F08804432C82AC894EF6F310C4
:103070000440B08831890843718908430443AC8116
:10308000AC8A4FF6FF400440B0890443AC8201A8EB
:10309000FFF76AFA1F48874202D1DDF810A001E06D
:1030A000DDF80CA0A88900F4004040B10AEBCA008A
:1030B00000EB0A1031684900B0FBF1F807E00AEBB9
:1030C000CA0000EB0A1031688900B0FBF1F86420F7
:1030D000B8FBF0F004012009642101FB1089A889E4
:1030E00000F4004040B1322000EBC900B0FBF1F029
:1030F00000F00700044308E0322000EB09106421CF
:10310000B0FBF1F000F00F0004432C8106B0BDE8E5
:10311000F08700000038014001468888C0F30800AD
:103120007047C1F308028280704700BFFEE70000CD
:1031300008B501211020FFF7F7F94020ADF8000095
:1031400010208DF8030003208DF802006946024824
:10315000FFF71FF808BD00000010014010B5002067
:10316000064908603C2000F0C1F801200449C1F87C
:10317000980100200149086010BD0000980122421A
:103180000000224200B5024600230CE002F40000D9
:10319000B0F5000F02D1FFF775FD01E0FFF760FD0C
:1031A0005200581CC3B2182BF0DB00BD70B50546A9
:1031B000002405E055F82400FFF7E4FF601CC4B2CA
:1031C000082CF7DBFFF7CAFF70BD490050EAC120A9
:1031D00018BF04204A0D18BF40F0010040F2FF72F2
:1031E000B2EB515F08BF40F00200012808BF052084
:1031F000704730380A2801D20120704700207047FC
:10320000014600BF704700002DE9F04105460E461B
:1032100000240EE0284600F001FE8046314600F012
:1032200011FE074600F0C2FD044941F82400601C6D
:10323000C4B2082CEEDBBDE8F08100002C000020B9
:10324000002001E0411CC8B20128FBDB70470020D0
:1032500001E0411CC8B20C28FBDB704710B56FF0D1
:103260000400FFF7FBFA0A4800680A49B0FBF1F0D6
:10327000094908700846007800EB4001C1EBC01016
:103280004FF6FF7101EAC0000449088010BD00003C
:103290000C00002000127A004C0000204E0000209C
:1032A0000146114A12884A434FF0E0235A61002236
:1032B0009A611A46126942F001021A6100BF4FF08A
:1032C000E022106900F001021AB100F48032002AF5
:1032D000F5D04FF0E022126922F001024FF0E02316
:1032E0001A6100229A6170474E0000200146114A7F
:1032F00012784A434FF0E0235A6100229A611A463D
:10330000126942F001021A6100BF4FF0E022106919
:1033100000F001021AB100F48032002AF5D04FF01B
:10332000E022126922F001024FF0E0231A6100222C
:103330009A6170474C00002000BF054A128802F0D5
:103340004002002AF9D0C2B2014B1B1D1A807047FF
:10335000003801401CB50020019000BF00BF00BF35
:1033600000BF4FF4A060FFF7A7F84FF4E13000F082
:1033700079F84FF4E13000F0C5F84FF4E13000F097
:1033800013F9FFF76BFFFFF7D3FE4FF07E514FF4B9
:103390006E00FFF739FF2748FFF708FFFFF702F835
:1033A000FEF718FCFEF790FCFEF79AFD102122486C
:1033B000FDF721F9FE2020490870CF20C8730122B3
:1033C00069461E48FFF73AF99DF801209DF8001064
:1033D0001BA0FCF77FFF9DF8000048B99DF8010095
:1033E00030B900201449087301201D4908600CE021
:1033F0009DF80000012808D19DF8010028B901209E
:103400000D4908730020164908604FF47A70FFF7E1
:1034100047FF4FF47A70FFF743FF41F61F4142F236
:103420000F70FFF771FB03E04FF47A70FFF738FF7E
:10343000FAE700002C000020700000200060000867
:103440006461746174656D705B305D3A2564202041
:103450006461746174656D705B315D3A25640A0066
:103460009401214210B586B00446012144F20400C3
:10347000FFF75AF84FF40070ADF8140003208DF8F0
:10348000160018208DF8170005A91C48FEF781FECC
:103490004FF48060ADF8140004208DF8170005A9E2
:1034A0001648FEF776FE25208DF8000003208DF8E3
:1034B00001008DF8020001208DF803006846FEF738
:1034C000C3FF01940020ADF80800ADF80A00ADF884
:1034D0000C00ADF810000C20ADF80E0001A9084852
:1034E000FFF7AEFD012240F225510548FFF783FDAD
:1034F00001210348FFF7EDFC06B010BD00080140B4
:103500000038014010B586B0044601210420FFF7C1
:103510000BF801214804FEF7E7FF0420ADF8140082
:1035200003208DF8160018208DF8170005A91C48F7
:10353000FEF72FFE0820ADF8140004208DF81700C8
:1035400005A91748FEF725FE26208DF80000032068
:103550008DF801008DF8020001208DF80300684607
:10356000FEF772FF01940020ADF80800ADF80A00E4
:10357000ADF80C00ADF810000C20ADF80E0001A95C
:103580000848FFF75DFD012240F225510548FFF78D
:1035900032FD01210348FFF79CFC06B010BD00007E
:1035A000000801400044004010B586B004460121E7
:1035B0000820FEF7B9FF01218804FEF795FF28488F
:1035C000FFF794FC4FF48060ADF8100003208DF8F5
:1035D000120018208DF8130004A92248FEF7D9FD27
:1035E0004FF40060ADF8100004208DF8130004A91A
:1035F0001C48FEF7CEFD00940020ADF80400ADF8A5
:103600000600ADF80800ADF80C000C20ADF80A007B
:1036100069461348FFF714FD01211148FFF759FCD3
:10362000012240F225510E48FFF7E5FC27208DF8D6
:10363000140002208DF8150003208DF816000120DB
:103640008DF8170005A8FEF7FFFE012240F2244185
:103650000348FFF7D0FC00200349088006B010BDE6
:1036600000480040000C01402A00002010B500294D
:103670000AD00878002807D005487844FDF7BAFD3D
:10368000002801D0002010BD0248784410BD000081
:103690009E0B0000960B000010B500290AD0087898
:1036A000002807D005487844FDF7A4FD002801D084
:1036B000002010BD0248784410BD00008E0B0000B1
:1036C000860B000021F00042A2F16052B2F5801F8B
:1036D00001F0004328BFD2F17F6C0BD95FEA001CD8
:1036E00043EAC20242EB507018BF704728BF20F077
:1036F00001007047B2F5801FBCBF184670474FEA03
:10370000410C1CF5001F02D2084600F062BC70B5E7
:1037100000F06AFA00000089FFF7F6BF4FF00040A2
:10372000A0F58000704700002DE9C04130B4DFF8FB
:10373000A0C23CEA111418BF3CEA131400F0EC805C
:1037400081EA03051CEA111444EAD57418BF1CEA87
:10375000131500F0C780A4EB05044FF0004545EABF
:10376000C12145EAC32341EA505143EA525304F1CF
:103770007F74994204F500344FEAC0204FEAC22218
:1037800008BF904200F09C804FEA13650FF240168C
:10379000765D4FEA134506FB05F7C7F1807706FB18
:1037A00007F74FEAD737A7FB03687642C8F580389A
:1037B000A7FB06CE38BFA8F1010807FB08E64FF0CB
:1037C000000EA6FB028CE6FB03CEDCF1000CCEF172
:1037D000004E38BFAEF1010EA6FB0C584FF00007AB
:1037E0004FF00005E6FB0E87A1FB08C6A0FB07CE45
:1037F00016EB0E0645F10005E1FB076515F1E04EFD
:103800007EBFA4F580345FEA46066D4116F180075D
:1038100045F100054FEA17274FEA066647EA0567B4
:10382000A6F1DE46B6F1805F4FEA15251FD938466E
:1038300024F0010C05EBC471BCF1FE6F01EB0C111F
:1038400002D8F0BCBDE8008124425CBF01F5801EB7
:103850009EEAC47F02D4F0BCBDE80081244238D483
:10386000F0BCA1F1C041BDE8004100F00BBA4FEA45
:10387000D22242EA43524FEAD323A7FB02864FEA01
:10388000D02040EA415007FB03661EEA0E0F4FEAC4
:10389000D12105FB026658BFA6EB0056B6EB0056D9
:1038A0004FEA520E4EEAC37E18EB0E0E56EB530E45
:1038B000BDD518EB02085E417F1C55F10005B6E747
:1038C0004FF480154FF000074FF000064FF000084E
:1038D000ADE7F0BC4FF0000001F1C04101F0004144
:1038E000BDE8008111EA0C1F0CEA131500D00CE0B2
:1038F00013EA0C1F00F025804FF00000F0BC81EAB5
:10390000030101F00041BDE80081F0BCBDE80041C9
:1039100081EA030100F0B6B9F0BCBDE8004170B522
:1039200000F062F9097EFC3E00F007B881EA03016D
:103930004FF0000001F00041704781EA030100F000
:10394000A1B9F0BCBDE800414FF00000214970472B
:10395000FFFDFBF9F7F5F4F2F0EEEDEBE9E8E6E454
:10396000E3E1E0DEDDDBDAD8D7D5D4D3D1D0CFCDDB
:10397000CCCBCAC8C7C6C5C4C2C1C0BFBEBDBCBB14
:10398000BAB9B8B7B6B5B4B3B2B1B0AFAEADACAB0F
:10399000AAA9A8A8A7A6A5A4A3A3A2A1A09F9F9EE9
:1039A0009D9C9C9B9A99999897979695959493939B
:1039B000929191908F8F8E8E8D8C8C8B8B8A898932
:1039C00088888787868585848483838282818180B5
:1039D0000000FF070000F87F4FEA41034FEA53530E
:1039E000A3F58063D3F11E03C8BFD3F1210C0CDD16
:1039F0004FF0004242EAC12242EA505232FA03FC3E
:103A00008CEAE17CACEBE1707047102BC4BF002066
:103A1000704703F5787CBCF1FF3F04D06FF00042A3
:103A200082EA2100704770B500F0DEF849922480E8
:103A300000207047F2E700004FEA1153A3F58063BE
:103A4000D3F11E03A8BFD3F1200C08DB4FF00042D6
:103A500042EAC12252EA505232FA03F07047094258
:103A60000BD4102BC4BF0020704703F5787CBCF149
:103A7000FF3F05D04FF0FF3070474FF00000704718
:103A800070B500F0B1F800BF499224800020704763
:103A9000F0E70000DFF848C170B51CEA111E1EBF38
:103AA0001CEA13159EEA0C0F95EA0C0F00F06F80CC
:103AB00081EA030423EA4C134EEAD47E21EA4C1136
:103AC00041F4801143F48013AE44A1FB024CA0FBEF
:103AD0000365AEF17F7E361955EB0C05A1FB034C57
:103AE0004CF10003A0FB021C16EB0C06654153F1E0
:103AF0000003094218BF46F0010613F4007F0BD102
:103B00004FEA03314FEA0530340341EA155140EAE8
:103B100016506FF003020AE04FEAC3214FEAC520B6
:103B2000F40241EA555140EA56506FF0020202EBAE
:103B30002E4201EB025585EACE710AD05FEA440CB1
:103B400018BF24F0004450F1000041F1000120EAC8
:103B5000D47040F2FE7C624500D270BDA84214BF12
:103B60004FF080444FF04044002E08BF0024BEF1C7
:103B7000806FA8BFA1F1C041BDE8704080F2828093
:103B80004FF0000001F1C04101F0004170479EEA92
:103B90000C0F0CEA131518BF95EA0C0F06D04FF066
:103BA000000081EA030E0EF0004170BD00F01CF829
:103BB0008900013E00F007B800F009B84FEA430C55
:103BC0005FEA5C5C08D081EA030100F05BB84FEA71
:103BD000410C5FEA5C5CF6D14FF000000149704790
:103BE0000000FF070000F87F0EF1020E2EF0030E1A
:103BF0005EF8046B364205D4012A43EB030515F544
:103C0000001F12D8012841EB010C1CF5001F0CD835
:103C10000ED14FEAD17C15F5001F0CEB4C0C0CF1CA
:103C2000020C08BF4CEBD37C04E04FF0080C01E021
:103C30004FEAD37C0CEB4C0526FA05F606F0070696
:103C4000B6F1040C06D20EEB860CBDE870404CF0C9
:103C5000010C6047DFE80CF0090B02024FF0004155
:103C60004FF00000A1F5002170BD19461046012853
:103C700051EB010418BFD4F5001484BF002001F0FB
:103C8000004170BD0808A0F500114FEA31017047EE
:103C900043004FEAD30C4FEA3C0C43401FBF4007A0
:103CA0000CF1605113F0FE4F70471CF0006F03D110
:103CB00000200CF0004170470CF0004343EA5070C4
:103CC00010B540EACC0000F03EF900BF00000092C1
:103CD0004FEA0001FFF7D6BF4FF000414FF0000060
:103CE000A1F500217047000090EA010F48BF81F064
:103CF000004100F17A81421A3CBF801A89184FEACC
:103D0000D0524FF07F4C1CEA410FA2EBD15318BFA9
:103D10009CEA026F00F03B804FF0004C4CEA002020
:103D20004CEA012121FA03FC10EB0C0C1ED202F12B
:103D3000FF325FEA1C2040EBC25038BF70471CF0D6
:103D40007F0F4FEA400C18BFBCF17F4F38BF704760
:103D5000C3F12003994008BF20F00100BCF17F4F60
:103D600038BF7047A0F1C04000F033B94FEA3C00C3
:103D7000000A40EBC25028BF1CF0FF0F4FEA400C76
:103D8000E6D018BFBCF17F4F38BF7047EAE79CEA26
:103D9000026F05D010EA5C0F08BF00F000407047CA
:103DA00010B500F0D0F800BF64FBBE3EC10DD1F1EC
:103DB0009E0206DB4FEA002343F0004323FA02F0A1
:103DC0007047004207D54FEA4001B1F1FE4F02D2E1
:103DD0004FF00000704710B500F0B5F8499224800C
:103DE000002070476FEA20007047000010F000418B
:103DF00048BF4042B0FA80F310FA03F2C3F19D03CA
:103E00000BD051EAC35101EB1220530638BF704763
:103E100000F1010008BF20F001007047B0FA80F304
:103E200010FA03F2C3F19D030AD0D90501EB122069
:103E3000530638BF704700F1010008BF20F00100B1
:103E4000704700004FF47F0C1CEAD0121EBF1CEA22
:103E5000D11392EA0C0F93EA0C0F00F0478090EA1E
:103E6000010F48BF42F480724FF0004C4CEA002032
:103E70004CEA012102EB0302A0FB0113A2F50002B0
:103E8000002918BF43F001035B0028BF4FEA33034A
:103E900042EB22425FEA132C4CEBC2502EBFBCEB2C
:103EA000436FB2F57C0F70474FEA036CBCF1004FD3
:103EB00008BF20F00100B2F57C0F38BF70470BD56A
:103EC00082F0FF0212F5803FC8BF704700F1C0408A
:103ED000D8BF00F00040704700F5000C5FEA4C0CC2
:103EE00048BF7047B0F1C04000F073B890EA010FCE
:103EF0000CEAD11348BF42F48072624538BF634573
:103F000004D280EA010000F00040704710B500F0D4
:103F10001AF800BF8900013E00F007B800F009B8A8
:103F20005FEA410C5FEA1C6C08D080EA010000F0F7
:103F300050B85FEA400C5FEA1C6CF6D14FF00040CD
:103F4000A0F5800070470EF1020E2EF0030E5EF811
:103F5000044B244204D44FEA4102B2F17F4F11D8FE
:103F60004FEA4003B3F17F4F0CD80ED14FEAD07C1B
:103F7000B2F17F4F0CEB4C0C0CF1020C08BF4CEB78
:103F8000D17C04E04FF0080C01E04FEAD17C0CEB4F
:103F90004C0324FA03F404F00704B4F1040C06D231
:103FA0000EEB840CBDE810404CF0010C6047DFE8DC
:103FB0000CF0070802024FF00040A0F5800010BD91
:103FC0000846420018BFD2F1807288BF00F000405E
:103FD00010BDFF2141EAD050C005704790EA010FA3
:103FE00048BF81F000413FF586AE421A04D882F006
:103FF0000042A0EB020011444FEAD0524FF07F4C38
:104000001CEA410FA2EBD15318BF9CEA026F4AD0C1
:104010004FF0004C4CEA00204CEA012121FA03FC4D
:10402000B0EB0C0C0FD412F0FE0F36D05FEA4C0050
:104030001DD5001240EBC25038BF70471CF03F0F37
:1040400018BF70470BE0A2F101025FEA1C2040EBB1
:10405000C25038BF70471CF07F0F18BF7047C3F1C4
:104060002003994014BF401E20F0010070478008D3
:104070004FEA122308BF7047B0FA80FCA2EB0C0293
:10408000CCF1280C60FA0CF093EA122F04BF00EB7D
:10409000C25070474FEAC3707047130A5FEADC10E2
:1040A00008BF7047F6E79CEA026F04D010EA5C0F85
:1040B00008BF0020704710B5FFF745FF40DFF63E10
:1040C00081F000407047FCF73CBE0400000800008F
:1040D00000000000000200010000100000000000CD
:1040E0000000000030313233343536373839414240
:1040F000434445464030580030313233343536374A
:1041000038396162636465664030780002400000BF
:10411000000000A00000000005400000000000C8F2
:10412000000000000C4000000000409C0000000067
:10413000194000000020BCBE000000003440000018
:10414000BFC91B8E00000004B5400000504BCFD00B
:104150006607E2CF010000006C4100003E8251AAD8
:10416000DFEEA73401000000D9420000DCB5A0E278
:104170003A301F97FFFFFFFFB4450000FD25A0C8A0
:10418000E9A3C14FFFFFFFFFFF3F000000000080D9
:1041900000000000FF3F0000000000800000000061
:1041A00030317B226964223A22313233222C22764A
:1041B000657273696F6E223A2022312E30222C22D2
:1041C000706172616D73223A207B226C6576656C3A
:1041D000223A7B2276616C7565223A25647D2C2219
:1041E0006C6F636B223A7B2276616C7565223A258F
:1041F000647D7D7D0A00000044430008000000202B
:10420000700000006C010008B4430008700000203A
:1042100020210000880100081C000000430000006D
:10422000F8FFFFFF0C0000000E0000000F00000070
:104230002E0000001001000043000000F8FFFFFF07
:1042400000404040404040404040414141414140A9
:10425000404040404040404040404040404040405E
:1042600040050202020202020202020202020202ED
:1042700002202020202020202020200202020202F2
:10428000020290909090909010101010101010104A
:104290001010101010101010101010100202020256
:1042A000020288888888888808080808080808089A
:1042B0000808080808080808080808080202020296
:1042C00040000000000000000000000000000000AE
:1042D00000000000000000000000000000000000DE
:1042E00000000000000000000000000000000000CE
:1042F00000000000000000000000000000000000BE
:1043000000000000000000000000000000000000AD
:10431000000000000000000000000000000000009D
:10432000000000000000000000000000000000008D
:10433000000000000000000000000000000000007D
:1043400000000000000000000000EE00000000007F
:1043500000A24A0400000000000000000102030463
:10436000060708090000000000000100020000002C
:1043700022222200222222002222220022222200A5
:1043800088888800888888008888880088888800CD
:10439000000000000000000000000000000000001D
:1043A00000000102030401020304060708090204D5
:0443B00006080000FB
:040000050800027974
:00000001FF
